:020000040800F2
:10000000B008002045010008410F0008430F000818
:10001000470F00084B0F00084F0F000800000000BA
:10002000000000000000000000000000530F000866
:10003000550F000800000000570F0008590F000876
:100040005F0100085F0100085F0100085F01000810
:100050005F0100085F0100085F0100085F01000800
:100060005F0100085F0100085F0100085F010008F0
:100070005F0100085F0100085F0100085F010008E0
:100080005F0100085F0100085F0100085F010008D0
:100090005F0100085F0100085F0100085F010008C0
:1000A0005F0100085F0100085F0100085F010008B0
:1000B0005F0100085F0100085F0100085F010008A0
:1000C0005F0100085F0100085F0100085F01000890
:1000D0005F0100085F0100085F0100085F01000880
:1000E0005F0100085F0100085F0100085F01000870
:1000F0005F0100085F0100085F0100085F01000860
:100100005F0100085F0100085F0100085F0100084F
:100110005F0100085F0100085F0100085F0100083F
:100120005F0100085F0100085F0100085F0100082F
:10013000DFF80CD001F0DCFA00480047710E00082F
:10014000B00800200648804706480047FEE7FEE763
:10015000FEE7FEE7FEE7FEE7FEE7FEE7FEE7FEE777
:1001600047020008310100080CB500200190009002
:100170006C48006840F480306A49086000BF6948F4
:10018000006800F4003000900198401C0190009835
:1001900018B90198B0F5A06FF1D16248006800F479
:1001A000003010B10120009001E000200090009884
:1001B000012843D15C48006840F010005A490860AB
:1001C0000846006820F0030008600846006840F018
:1001D0000200086053484068524948600846406839
:1001E00048600846406840F48060486008464068BF
:1001F00020F47C1048600846406840F4E8104860ED
:100200000846006840F08070086000BF45480068FC
:1002100000F000700028F9D04248406820F0030048
:10022000404948600846406840F00200486000BF0E
:100230003C48406800F00C000828F9D10CBD10B50E
:10024000FFF792FF10BD10B53648006840F001007E
:1002500034490860084640683449084031494860DC
:1002600008460068324908402E4908600846006880
:1002700020F4802008600846406820F4FE004860B2
:100280004FF41F008860FFF7DAFF4FF00060294944
:10029000086010BD10B5002100200022214B5B68D2
:1002A00003F00C0121B1042906D0082928D107E068
:1002B000214B224C236027E01F4B204C236023E07E
:1002C000184B5B6803F47010164B5B6803F48032C4
:1002D000022303EB904022B9194B4343174C236090
:1002E0000DE0104B5B6803F4003323B1144B434320
:1002F000124C236003E0104B4343104C236003E097
:100300000D4B0E4C236000BF00BF064B5B68C3F370
:1003100003130C4CE15C094B1B68CB40074C23607A
:1003200010BD000000100240002002400000FFF855
:10033000FFFFF6FE08ED00E000127A00000000204A
:1003400000093D000400002010B50446CC4884425A
:1003500008D10121042000F02DFB0021042000F031
:1003600029FB46E0C748844208D10121082000F05B
:1003700021FB0021082000F01DFB3AE0C248844226
:1003800008D10121102000F015FB0021102000F001
:1003900011FB2EE0BD48844208D10121202000F04D
:1003A00009FB0021202000F005FB22E0B848844230
:1003B00008D10121402000F0FDFA0021402000F08A
:1003C000F9FA16E0B348844208D10121802000F0F8
:1003D000F1FA0021802000F0EDFA0AE0AE488442F4
:1003E00007D10121801500F0E5FA0021A01500F0E9
:1003F000E1FA10BD10B50121084600F0DBFA00213A
:10040000012000F0D7FA10BD2DE9F0410246002589
:100410000026002000230024002791F803C00CF0E0
:100420000F0591F803C00CF0100CBCF1000F03D0C5
:1004300091F802C04CEA050591F800C0BCF1000F2C
:1004400031D0146800202BE04FF0010C0CFA00F3BF
:10045000B1F800C00CEA03069E4220D183004FF0A1
:100460000F0C0CFA03F7BC4305FA03FC4CEA040436
:1004700091F803C0BCF1280F06D14FF0010C0CFA23
:1004800000FCC2F814C00AE091F803C0BCF1480FA8
:1004900005D14FF0010C0CFA00FCC2F810C0401C52
:1004A0000828D1D31460B1F800C0BCF1FF0F34DDCF
:1004B000546800202EE000F1080C4FF0010808FA03
:1004C0000CF3B1F800C00CEA03069E4221D1830070
:1004D0004FF00F0C0CFA03F7BC4305FA03FC4CEA8F
:1004E000040491F803C0BCF1280F05D100F1080CF9
:1004F00008FA0CF8C2F8148091F803C0BCF1480F58
:1005000007D100F1080C4FF0010808FA0CF8C2F806
:100510001080401C0828CED35460BDE8F0814FF60F
:10052000FF710180022181700421C1707047024671
:10053000002093680B400BB1012000E000207047C1
:100540000146886880B2704702460020D3680B409D
:100550000BB1012000E0002070470146C86880B25E
:10056000704701617047416170470AB1016100E065
:1005700041617047C16070474FF480320A43826125
:100580008161826182698269704702460020434B23
:1005900018684FF68073184040EA021008433F4B3A
:1005A000186070473E49C8617047F0B50A4600239D
:1005B00000240021002500F00046B6F1004F02D1D2
:1005C000364EF16901E0354E7168C0F3034583B2E0
:1005D00000F44016B6F5401F08D121F070612F4E8F
:1005E000766826F070662D4F7E6012E000F480166B
:1005F000B6F5801F06D1032606FA05F4A14341F0A3
:10060000706106E0460D360103FA06F6B14341F08B
:10061000706122B1460D360103FA06F6314300F04F
:100620000046B6F1004F02D11C4EF16101E01B4EB5
:100630007160F0BD30B500228B071C0F0F2303FA49
:1006400004F2164B08338C1053F824309343134CA8
:1006500008348D1044F8253023468C1053F824308C
:100660008C07240F00FA04F423430C4C08348D103B
:1006700044F8253030BD0A49DC310860704700007D
:1006800000080140000C014000100140001401402E
:1006900000180140001C0140002001400000014002
:1006A00000002042DF48006840F00100DD4908609A
:1006B00008464068DC490840DA4948600846006856
:1006C000DA490840D74908600846006820F48020CD
:1006D00008600846406820F4FE0048604FF41F00A0
:1006E00088607047CF49096821F48031CD4A116094
:1006F0001146096821F480211160B0F5803F03D0D4
:10070000B0F5802F0ED106E0C649096841F480316A
:10071000C44A116007E0C349096841F4A021C14AF5
:10072000116000E000BF00BF704710B50146002215
:10073000002300204A11012A02D1BA4C236806E0A6
:10074000022A02D1B74C236A01E0B64C636A01F079
:100750001F02012494401C400CB1012000E0002045
:1007600010BD38B5002000900024002500BF3120C6
:10077000FFF7DBFF05460098401C00900098B0F59D
:10078000A06F01D0002DF2D03120FFF7CEFF08B1CD
:10079000012400E00024204638BD01460020A14A83
:1007A000106820F0F80040EAC10010607047A049CE
:1007B00008607047024600209A4B586820F47C106D
:1007C00042EA01031843974B5860704798490866FE
:1007D000704701460020934A506820F00300084308
:1007E000506070478F48406800F00C007047014629
:1007F00000208C4A506820F0F00008435060704799
:1008000001460020874A506820F4E06008435060A9
:10081000704701460020834A506820F4605040EA47
:10082000C1005060704729B17E4A527A02437D4B25
:100830005A7204E07B4A527A82437A4B5A7270476A
:100840007B49D8310860704701460020754A5068DE
:1008500020F440400843506070470021714A203224
:100860001170704A82F82010012802D004280AD1A1
:1008700004E001216B4A2032117005E00521694A2C
:100880002032117000E000BF00BF70476949086066
:1008900070476449096A0143624A116270476549B9
:1008A00044390860704730B500210022002400233D
:1008B0005C4D6D6805F00C0121B1042905D00829B3
:1008C00023D105E05C4D056022E05B4D05601FE033
:1008D000544D6D6805F47012524D6D6805F4803406
:1008E000022505EB92421CB9544D554305600BE0BF
:1008F0004C4D6D6805F400351DB1504D55430560F4
:1009000002E04D4D5543056002E04B4D056000BFD0
:1009100000BF444D6D6805F0F0010909484D6B5C5E
:100920000568DD4045603F4D6D6805F4E061090AEA
:10093000434D6B5C4568DD4085603A4D6D6805F45C
:100940006051C90A3E4D6B5C4568DD40C560354D60
:100950006D6805F44041890B3A4D6B5CC568B5FB89
:10096000F3F5056130BD29B12E4A526902432D4B82
:100970005A6104E02B4A526982432A4B5A617047FC
:1009800029B1284A92690243264B9A6104E0254A1C
:1009900092698243234B9A61704729B1214AD269F7
:1009A0000243204BDA6104E01E4AD26982431D4BA8
:1009B000DA61704729B11B4AD2680243194BDA60E9
:1009C00004E0184AD2688243164BDA60704729B1B6
:1009D000144A12690243134B1A6104E0114A126966
:1009E0008243104B1A6170471249403908607047C2
:1009F0000F49C86470470B49C87170470948406A7D
:100A000040F0807007494862704701460020054A5F
:100A100092680A400AB1012000E0002070470149B5
:100A200088727047001002400000FFF8FFFFF6FEDA
:100A3000000042428004424200127A0000093D0058
:100A4000140000202400002010B50446FB48844216
:100A500009D101218803FFF7ADFF00214FF4804049
:100A6000FFF7A8FF32E0F648844209D1012148048B
:100A7000FFF7ADFF00214FF40030FFF7A8FF25E09E
:100A8000F048844209D101218804FFF7A0FF00212A
:100A90004FF48020FFF79BFF18E0EB48844209D118
:100AA0000121C804FFF793FF00214FF40020FFF756
:100AB0008EFF0BE0E548844208D101210805FFF7CD
:100AC00086FF00214FF48010FFF781FF10BD2DE954
:100AD000F04786B005460E460024A24600BFA14658
:100AE0000027B08900B100BF2F462C8A4CF6FF705A
:100AF0000440F08804432C82AC894EF6F310044085
:100B0000B08831890843718908430443AC81AC8AB9
:100B10004FF6FF400440B0890443AC8201A8FFF7C0
:100B2000C2FEC648874202D1DDF810A001E0DDF820
:100B30000CA0A88900F4004040B10AEBCA0000EB09
:100B40000A1031684900B0FBF1F807E00AEBCA006F
:100B500000EB0A1031688900B0FBF1F86420B8FBA3
:100B6000F0F004012009642101FB1089A88900F438
:100B7000004040B1322000EBC900B0FBF1F000F0C2
:100B80000700044308E0322000EB09106421B0FBA9
:100B9000F1F000F00F0004432C8106B0BDE8F087AF
:100BA0004FF41651016000218180C18001810C2128
:100BB000418100218181704710B502460020108AD2
:100BC0004FF2FF0318400B884C8823438C88234343
:100BD000CC8823431843108210BD0021018041803E
:100BE0008180C180704721B1828942F400528281A4
:100BF00004E082894DF6FF731A4082817047F0B598
:100C00000346002400260025002040F66A17B9425A
:100C100000D100BF1846C1F3421401F01F0601279E
:100C200007FA06F5012C01D10C3004E0022C01D1A9
:100C3000103000E014301AB107682F43076002E05B
:100C40000768AF430760F0BD1AB1838A0B43838204
:100C500002E0838A8B4383827047028A4FF6F073E7
:100C60001A400282028A0A430282704782894FF246
:100C7000FF731A40828182890A438281704721B1C1
:100C8000828942F00202828104E082894FF6FD737C
:100C90001A4082817047028A4FF6DF731A4002823F
:100CA000028A0A430282704721B1028A42F48042DA
:100CB000028204E0028A4BF6FF731A4002827047F8
:100CC000C1F308028280704701468888C0F308009B
:100CD0007047818941F0010181817047028BD2B256
:100CE0000283028B42EA012202837047028B02F4E4
:100CF0007F420283028B0A430283704721B1828ABA
:100D000042F02002828204E0828A4FF6DF731A40AA
:100D10008282704721B1828A42F01002828204E00E
:100D2000828A4FF6EF731A408282704721B1828A1D
:100D300042F00802828204E0828A4FF6F7731A407A
:100D40008282704721B1828942F40042828103E0AD
:100D50008289C2F30E028281704721B1828A42F4F5
:100D60000062828204E0828A4FF2FF731A4082821C
:100D70007047828A4FF6FB731A408282828A0A4346
:100D80008282704721B1828A42F00202828204E0AC
:100D9000828A4FF6FD731A40828270470246002015
:100DA000B1F5007F00D100BF13880B400BB10120CB
:100DB00000E00020704701F40072B2F5007F00D11E
:100DC00000BFCA430280704770B50246002400236A
:100DD0000025002040F66A16B14200D100BFC1F3E1
:100DE000421501F01F03012606FA03F3012D02D17B
:100DF0009689334006E0022D02D1168A334001E085
:100E0000968A33400C12012606FA04F41688344000
:100E100013B10CB1012000E0002070BD10B500221C
:100E2000002340F66A14A14200D100BF0A12012437
:100E30009440A3B2DC43048010BD000000380140A0
:100E40000044004000480040004C0040005000407A
:100E5000002009E0002101E04A1C91B242F2107228
:100E60009142F9DB421C90B2B0F57A7FF2DB704719
:100E700038B500F0AFF920201A4908600120086059
:100E80000220091D086000F047F917A000F06EFC71
:100E9000782000F02EF9044621461AA000F066FCE6
:100EA00000F002FA1AA000F061FC00F09CFA0123A5
:100EB0001CA20321002000F09BFA02231CA20421A3
:100EC000002000F095FAFFF7C3FF00F08CFA1B48F2
:100ED0000823802200210090084600F023FB002018
:100EE00038BD0000100C01406F6C6564C8EDBCFE9D
:100EF000C4A3C4E2693263B2E2CAD4C0FDB3CC2059
:100F00000D0A000061203D202564200D0A0000002C
:100F10006F6C6564B3F5CABCBBAFCDEAB3C9200D35
:100F20000A000000323032312D30372D32330000CC
:100F30004B65657020676F696E672100A80000200F
:100F4000704700BFFEE700BFFEE700BFFEE700BF3F
:100F5000FEE770477047704770470000002001E0CF
:100F6000411CC8B20A28FBDB704710B580206949D4
:100F7000086040200860FFF7F1FF80206549091DE7
:100F80000860FFF7EBFF40206249091D0860FFF78A
:100F9000E5FF10BD10B580205E49091D08604020A6
:100FA000091F0860FFF7DAFF80205A49086010BD6A
:100FB00070B50446002520E004F0800018B18020C0
:100FC0005449086003E080205249091D0860FFF77A
:100FD000C5FF40204F490860FFF7C0FF40204D4942
:100FE000091D0860072D02D18020091F08606006D6
:100FF000040EFFF7B3FF681CC5B2082DDCDB70BD23
:1010000070B50024002516E06006040E402041491A
:101010000860FFF7A3FF3F480838006800F0800031
:1010200008B1601CC4B240203A49091D0860FFF7AE
:1010300095FF681CC5B2082DE6DB204670BD10B5D3
:10104000802034490860FFF789FF4020314908605B
:10105000FFF784FF2F480838006800F0800008B1CF
:10106000012400E0002440202A49091D0860FFF700
:1010700075FF204610BD10B580202649091D086067
:10108000FFF76CFF402023490860FFF767FF40200F
:101090002049091D0860FFF761FF80201D49086095
:1010A00010BD10B580201B490860FFF757FF402096
:1010B00018490860FFF752FF40201649091D0860D3
:1010C000FFF74CFF10BD08B501210820FFF758FCC1
:1010D000C020ADF8000003208DF8020014208DF828
:1010E000030069460B481038FFF78EF9FFF752FFEF
:1010F00008BD70B50446FFF7E6FFFFF736FF204650
:10110000FFF756FFFFF79BFF0546FFF743FF284613
:1011100070BD0000100C014000B585B00121042015
:10112000FFF72EFC01218803FFF72AFC4FF4007023
:10113000ADF8100018208DF8130003208DF8120070
:1011400004A92248FFF760F94FF48060ADF8100061
:1011500004208DF8130004A91C48FFF755F94FF43B
:10116000E13000900020ADF80400ADF80600ADF8C5
:101170000800ADF80C000C20ADF80A0069461448D0
:10118000FFF7A5FC01211248FFF72DFD05B000BDBA
:1011900070B504460D46E1B20D48FFF791FD00BF62
:1011A00080210B48FFF7FAFD0028F9D0204670BDDA
:1011B00010B5044600BF20210548FFF7EFFD0028C9
:1011C000F9D00348FFF780FD10BD00000008014082
:1011D0000038014008B501210820FFF7D1FB20208D
:1011E000ADF8000010208DF8030003208DF80200F8
:1011F00069460F48FFF708F90120ADF8000069467D
:101200000B48FFF701F90220ADF8000069460848D5
:10121000FFF7FAF820210648FFF7A3F90121044857
:10122000FFF79FF902210248FFF79BF908BD000074
:10123000000C0140002007E0002101E04A1C91B2AF
:101240000A29FBDB421C90B2B0F57A7FF4DB7047D1
:1012500010B50446FFF789FE7820FFF7A9FEFFF7D7
:10126000EEFE0020FFF7A4FEFFF7E9FE2046FFF7A1
:101270009FFEFFF7E4FEFFF78DFE10BD10B504469C
:10128000FFF773FE7820FFF793FEFFF7D8FE4020AC
:10129000FFF78EFEFFF7D3FE2046FFF789FEFFF72C
:1012A000CEFEFFF777FE10BD10B5FFF7C3FFAE20EF
:1012B000FFF7CEFF2020FFF7CBFF1020FFF7C8FF7E
:1012C000B020FFF7C5FFC820FFF7C2FF0020FFF7DF
:1012D000BFFF1020FFF7BCFF4020FFF7B9FF8120C0
:1012E000FFF7B6FFFF20FFF7B3FFA120FFF7B0FF26
:1012F000A620FFF7ADFFA820FFF7AAFF3F20FFF7CA
:10130000A7FFA420FFF7A4FFD320FFF7A1FF002031
:10131000FFF79EFFD520FFF79BFFF020FFF798FF18
:10132000D920FFF795FF2220FFF792FFDA20FFF781
:101330008FFF1220FFF78CFFDB20FFF789FF2020B3
:10134000FFF786FF8D20FFF783FF1420FFF780FF54
:10135000AF20FFF77DFF10BD10B58D20FFF778FFA0
:101360001420FFF775FFAF20FFF772FF10BD10B517
:101370008D20FFF76DFF1020FFF76AFFAE20FFF70B
:1013800067FF10BD70B504460D4605F1B001C8B247
:10139000FFF75EFF102141EA1410FFF759FF04F038
:1013A0000F0141F00100FFF753FF70BD70B5064615
:1013B000002415E004F1B001C8B2FFF749FF002096
:1013C000FFF746FF1020FFF743FF002504E03046FB
:1013D000FFF754FF681CC5B2802DF8DB601CC4B257
:1013E000082CE7DB70BD10B50020FFF7DFFF10BD54
:1013F0002DE9F0470646894617469A464FF0000801
:1014000000240025BAF1010F03D0BAF1020F5ED11A
:1014100025E020E0785D203800F0FF087E2E04DD16
:10142000002609F1010000F0FF0949463046FFF7A8
:10143000A9FF002409E008EB48019F4A02EB4101A3
:10144000085DFFF71BFF601CC4B2062CF3DBB01D68
:10145000C6B2681CC5B2785D0028DBD137E032E047
:10146000785D203800F0FF08782E04DD002609F1B1
:10147000010000F0FF0949463046FFF783FF0024D2
:1014800007E004EB08118D4A505CFFF7F7FE601C83
:10149000C4B2082CF5DB09F10100C1B23046FFF7F8
:1014A00071FF002408E004EB08110831834A505C06
:1014B000FFF7E4FE601CC4B2082CF4DB06F1080060
:1014C000C6B2681CC5B2785D0028C9D100BF00BF94
:1014D000BDE8F0872DE9F04180460E46174600240E
:1014E0007D0131464046FFF74DFF00BF06E07449DD
:1014F000485DFFF7C3FE6D1C601CC4B2102CF6DB08
:10150000701CC1B24046FFF73DFF002406E06C4965
:10151000485DFFF7B3FE6D1C601CC4B2102CF6DBF7
:10152000BDE8F0812DE9F05F06460F4690461C4667
:10153000DDF828A04FF0000BE11704EB5171C91042
:10154000A4EBC10131B92046E11704EB5171C1F39D
:10155000C70506E02046E11704EB5171C910491C8C
:10156000CDB23D4614E029463046FFF70BFFB146A9
:101570000AE059460BF1010B1AF80100FFF77EFE55
:1015800009F1010000F0FF09C145F2DB681CC5B29A
:10159000A542E8DBBDE8F09F2DE9F04180460E460C
:1015A000174600243D0131464046FFF7EBFE00BFE1
:1015B00006E04249485DFFF761FE6D1C601CC4B245
:1015C000082CF6DB701CC1B24046FFF7DBFE00249E
:1015D00006E03A49485DFFF751FE6D1C601CC4B23D
:1015E000082CF6DBBDE8F0812DE9F05F05460E46DC
:1015F000144642F21070B4FBF0F0C7B24FF47A70A8
:10160000B4FBF0F00A21B0FBF1F201FB12086420F8
:10161000B4FBF0F0B0FBF1F201FB12090A20B4FBBD
:10162000F0F0B0FBF1F201FB120A0A20B4FBF0F17A
:1016300000FB114B3A4631462846FFF7ADFF05F156
:101640000801C8B242463146FFF7A6FF05F1100176
:10165000C8B24A463146FFF79FFF05F11801C8B2EC
:1016600052463146FFF798FF05F12001C8B25A46AD
:101670003146FFF791FFBDE8F09F2DE9F0410446A8
:101680000E4615460A2095FBF0F0C7B20A2095FBDE
:10169000F0F100FB115000F0FF08E106080E3A4699
:1016A0003146FFF779FF611CC906080E42463146F4
:1016B000FFF772FFBDE8F08100190008281B000841
:1016C0002800002030B50B460146002020220124CE
:1016D00009E021FA02F59D4205D303FA02F5491B00
:1016E00004FA02F52844151EA2F10102F1DC30BD16
:1016F000064C074D06E0E06840F0010394E807005F
:1017000098471034AC42F6D3FEF716FD18210008B6
:101710003821000870B58C1810F8015B15F007032C
:1017200001D110F8013B2A1106D110F8012B03E07A
:1017300010F8016B01F8016B5B1EF9D12B0705D482
:101740000023521E0DD401F8013BFAE710F8013BCB
:10175000CB1A921C03E013F8015B01F8015B521EE7
:10176000F9D5A142D8D3002070BD00000FB4054BBD
:1017700010B503A9044A029800F018F810BC5DF8EF
:1017800014FB000091110008A804002002E008C822
:10179000121F08C1002AFAD170477047002001E0EB
:1017A00001C1121F002AFBD1704700002DE9FF4F35
:1017B00089B09B460446002506E025280BD05A46F2
:1017C0000B999047641C6D1C20780028F5D10DB052
:1017D0002846BDE8F08F0027B8460122474900E0BF
:1017E000074314F8013F203B02FA03F00842F7D107
:1017F00020782E2819D114F8010F47F004072A2861
:101800000ED06FF02F022078A0F1300109290CD8FA
:1018100008EB880102EB410100EB0108641CF2E7D0
:101820000A98641C50F8048B0A9020780028CED0C7
:10183000642808D0692806D075281ED05A460B990E
:1018400090476D1C58E00A994FF00A0901C90A91A6
:10185000002802DA40422D2102E0390504D52B216F
:101860008DF82010012103E0F90704D02021F7E7CB
:101870008A4608AE0DE00021FAE70A994FF00A09FE
:1018800001C90A91F7E74946FFF71CFF303106F816
:10189000011D0028F7D1ADEB060000F12009780703
:1018A00001D44FF00108C84502DDA8EB090000E0B3
:1018B00000208046002706E008A85A46C05D0B9924
:1018C00090476D1C7F1C5745F6DB04E030205A46DC
:1018D0000B9990476D1CB8F10001A8F10108F5DCE7
:1018E00005E016F8010B5A460B9990476D1CB9F1AB
:1018F0000001A9F10109F4DC641C65E70928010075
:101900000000000000000000002F000000000700A1
:10191000070000147F147F1400242A7F2A1200621B
:1019200064081323003649552250000005030000C7
:1019300000001C224100000041221C000014083E4F
:1019400008140008083E0808000000A06000000815
:101950000808080800006060000000201008040269
:10196000003E5149453E0000427F40000042615127
:101970004946002141454B31001814127F100027C1
:1019800045454539003C4A49493000017109050384
:1019900000364949493600064949291E00003636B5
:1019A0000000000056360000000814224100001418
:1019B00014141414000041221408000201510906F5
:1019C00000324959513E007C1211127C007F494976
:1019D0004936003E41414122007F4141221C007FA7
:1019E00049494941007F09090901003E4149497AB5
:1019F000007F0808087F0000417F4100002040412F
:101A00003F01007F08142241007F40404040007F9A
:101A1000020C027F007F0408107F003E4141413EDE
:101A2000007F09090906003E4151215E007F091926
:101A300029460046494949310001017F0101003F23
:101A40004040403F001F2040201F003F4038403FA3
:101A50000063140814630007087008070061514907
:101A6000454300007F41410000552A552A5500009A
:101A700041417F0000040201020400404040404018
:101A8000000001020400002054545478007F4844B0
:101A9000443800384444442000384444487F0038E7
:101AA0005454541800087E0901020018A4A4A47C10
:101AB000007F080404780000447D400000408084DA
:101AC0007D00007F102844000000417F4000007C22
:101AD00004180478007C080404780038444444382E
:101AE00000FC242424180018242418FC007C08047A
:101AF000040800485454542000043F444020003C53
:101B00004040207C001C2040201C003C4030403CD9
:101B1000004428102844001CA0A0A07C0044645469
:101B20004C441414141414140000000000000000AD
:101B30000000000000000000000000F800000000AD
:101B4000000000333000000000100C06100C0600EE
:101B5000000000000000000040C07840C078400055
:101B6000043F04043F040400007088FC08300000B7
:101B7000001820FF211E0000F008F000E01800000F
:101B800000211C031E211E0000F0088870000000C8
:101B90001E2123241927211010160E00000000001A
:101BA0000000000000000000000000E01804020037
:101BB000000000071820400000020418E0000000A8
:101BC0000040201807000000404080F080404000A6
:101BD0000202010F01020200000000F000000000FC
:101BE0000101011F010101000000000000000000D0
:101BF00080B0700000000000000000000000000045
:101C000000010101010101010000000000000000CD
:101C10000030300000000000000000008060180468
:101C2000006018060100000000E010080810E00045
:101C3000000F102020100F00001010F8000000000E
:101C40000020203F20200000007008080888700055
:101C500000302824222130000030088888483000D5
:101C60000018202020110E000000C02010F80000F5
:101C700000070424243F240000F80888880808008E
:101C80000019212020110E0000E0108888180000A3
:101C9000000F112020110E0000380808C838080075
:101CA0000000003F000000000070880808887000F5
:101CB000001C222121221C0000E010080810E00076
:101CC0000000312222110F00000000C0C0000000FF
:101CD0000000003030000000000000800000000024
:101CE000000080600000000000008040201008001C
:101CF00000010204081020004040404040404000E5
:101D000004040404040404000008102040800000BF
:101D10000020100804020100007048080808F000C4
:101D20000000003036010000C030C828E810E00094
:101D30000718272423140B000000C038E00000001F
:101D4000203C23020227382008F888888870000089
:101D5000203F202020110E00C0300808080838005D
:101D6000071820202010080008F808080810E000D4
:101D7000203F202020100F0008F88888E808100075
:101D8000203F20202320180008F88888E808100049
:101D9000203F200003000000C03008080838000081
:101DA00007182020221E020008F808000008F80882
:101DB000203F210101213F20000808F80808000009
:101DC0000020203F2020000000000808F80808003C
:101DD000C08080807F00000008F888C028180800B4
:101DE000203F20012638200008F8080000000000ED
:101DF000203F20202020300008F8F800F8F80800E4
:101E0000203F003F003F200008F830C00008F808DD
:101E1000203F200007183F00E01008080810E000ED
:101E20000F10202020100F0008F808080808F00004
:101E3000203F210101010000E01008080810E00027
:101E40000F18242438504F0008F8888888887000BC
:101E5000203F2000030C302000708808080838005C
:101E60000038202121221C00180808F80808180052
:101E70000000203F2000000008F808000008F808D3
:101E8000001F202020201F000878880000C8380884
:101E9000000007380E010000F80800F80008F800FC
:101EA000033C0700073C0300081868808068180896
:101EB00020302C03032C30200838C800C838080014
:101EC0000000203F2000000010080808C838080063
:101ED0002038262120201800000000FE0202020007
:101EE0000000007F40404000000C30C000000000B7
:101EF000000000010638C00000020202FE000000DF
:101F0000004040407F000000000004020202040084
:101F100000000000000000000000000000000000C1
:101F200080808080808080800002020400000000A9
:101F300000000000000000000000808080800000A1
:101F40000019242222223F2008F80080800000008F
:101F5000003F112020110E00000000808080000052
:101F6000000E112020201100000000808088F80061
:101F7000000E112020103F20000080808080000093
:101F8000001F222222221300008080F088888818F7
:101F90000020203F20200000000080808080800002
:101FA000006B94949493600008F800808080000097
:101FB000203F210000203F20008098980000000072
:101FC0000020203F202000000000008098980000A2
:101FD00000C08080807F000008F8000080808000C2
:101FE000203F24022D302000000808F800000000E7
:101FF0000020203F202000008080808080808000A2
:10200000203F20003F20003F808000808080000033
:10201000203F210000203F200000808080800000C1
:10202000001F202020201F008080008080000000F2
:1020300080FFA12020110E00000000808080800021
:10204000000E112020A0FF80808080008080800012
:1020500020203F212000010000008080808080003F
:102060000033242424241900008080E080800000B4
:102070000000001F20200000808000000080800001
:10208000001F202020103F20808080000080808062
:1020900000010E30080601008080008000808080F2
:1020A0000F300C030C300F00008080008080800017
:1020B0000020312E0E312000808080000080808042
:1020C00080818E70180601000080808080808000F2
:1020D0000021302C2221300000000000807C020210
:1020E00000000000003F404000000000FF00000032
:1020F00000000000FF0000000002027C80000000E1
:102100000040403F000000000006010102020404FC
:10211000000000000000000038210008000000203E
:10212000AC04000014170008D8220008AC040020FA
:10213000040400009C1700081184A24A04680901E5
:10214000020304060708090C691015020406082C8E
:10215000FE9292031117424AD26A46C0100940C447
:1021600044443F2424241440807F420133C0382259
:10217000FF34402018100880814020100C03100804
:10218000030C1020408080172424A4FEA3223B22AD
:10219000CC242115080601FF2B01040115FF0202C2
:1021A00002180C101010FF109008888888FF041285
:1021B0000820100444827F01808040432C10284670
:1021C0008180100A03050911FF118905C312E0126D
:1021D000F072F8073D4428FF11AA44700B830138C0
:1021E000448292927401831E7C44C7017D0199054B
:1021F00039B3219A0102818A010B0136694199495B
:10220000FA0101A12A4001212A6D01212A600179E8
:102210001501642ADB010915072ADA01212AD801F0
:10222000212AC0010915072A800101352A06010962
:1022300018071CE66620076A86157A861C2A86011E
:10224000180A80808686068686C0C00C0E1C06068C
:10225000D030764D2907013113601C12FE130102A4
:102260001009C41820029E63B20E1DFF8181FFF287
:102270004440300F12FF180923EAAABFAAEA033F1D
:102280000B012DBC808080080115240E0C082A014A
:10229000013149041D81808081021901B91706119D
:1022A0000101090C0E0A14C0012178081E214040CA
:1022B00050215E08012A4DFFFFC1C10409232D48AA
:1022C0001580FCF3EFF3FC80FF80EEEEEEF5FBFFF4
:0822D0009CBEB6B6883A00007E
:0400000508000131BD
:00000001FF
